{
  "contractName": "newcon",
  "abi": [
    {
      "inputs": [],
      "stateMutability": "nonpayable",
      "type": "constructor"
    },
    {
      "inputs": [],
      "name": "getAdmin",
      "outputs": [
        {
          "internalType": "address",
          "name": "",
          "type": "address"
        }
      ],
      "stateMutability": "view",
      "type": "function"
    }
  ],
  "bytecode": "0x608060405234801561001057600080fd5b50336000806101000a81548173ffffffffffffffffffffffffffffffffffffffff021916908373ffffffffffffffffffffffffffffffffffffffff16021790555060d48061005f6000396000f3fe6080604052348015600f57600080fd5b506004361060285760003560e01c80636e9960c314602d575b600080fd5b60336075565b604051808273ffffffffffffffffffffffffffffffffffffffff1673ffffffffffffffffffffffffffffffffffffffff16815260200191505060405180910390f35b60008060009054906101000a900473ffffffffffffffffffffffffffffffffffffffff1690509056fea26469706673582212201fef375537324db3ccaf74f0b231077e42931b36cfdb76a1a5f403c11b33a01d64736f6c63430006070033",
  "immutableReferences": {},
  "source": "pragma solidity 0.6.7;\r\n\r\ncontract newcon{\r\n    address private admin;\r\n\r\n    constructor() public {\r\n        admin=msg.sender;\r\n    }\r\n\r\n    function getAdmin() public view returns(address){\r\n        return admin;\r\n    }\r\n}",
  "sourcePath": "C:\\Users\\aarya\\Documents\\GitHub\\tdd-truffle\\contracts\\newcon.sol",
  "compiler": {
    "name": "solc",
    "version": "0.6.7+commit.b8d736ae.Emscripten.clang"
  },
  "schemaVersion": "3.2.0",
  "updatedAt": "2020-06-25T15:32:43.298Z",
  "devdoc": {
    "methods": {}
  },
  "userdoc": {
    "methods": {}
  }
}